{
  "contractName": "CrowdFunding",
  "abi": [
    {
      "inputs": [],
      "stateMutability": "nonpayable",
      "type": "constructor"
    },
    {
      "anonymous": false,
      "inputs": [
        {
          "indexed": true,
          "internalType": "string",
          "name": "description",
          "type": "string"
        },
        {
          "indexed": true,
          "internalType": "address",
          "name": "reciepent",
          "type": "address"
        },
        {
          "indexed": true,
          "internalType": "uint256",
          "name": "value",
          "type": "uint256"
        },
        {
          "indexed": false,
          "internalType": "bool",
          "name": "completed",
          "type": "bool"
        },
        {
          "indexed": false,
          "internalType": "uint256",
          "name": "noOfVoters",
          "type": "uint256"
        }
      ],
      "name": "RequestsWrite",
      "type": "event"
    },
    {
      "anonymous": false,
      "inputs": [
        {
          "indexed": true,
          "internalType": "address",
          "name": "_from",
          "type": "address"
        },
        {
          "indexed": true,
          "internalType": "address",
          "name": "_to",
          "type": "address"
        },
        {
          "indexed": false,
          "internalType": "uint256",
          "name": "value",
          "type": "uint256"
        }
      ],
      "name": "Transfer",
      "type": "event"
    },
    {
      "inputs": [],
      "name": "balance",
      "outputs": [
        {
          "internalType": "uint256",
          "name": "",
          "type": "uint256"
        }
      ],
      "stateMutability": "view",
      "type": "function",
      "constant": true
    },
    {
      "inputs": [],
      "name": "contract1",
      "outputs": [
        {
          "internalType": "address",
          "name": "",
          "type": "address"
        }
      ],
      "stateMutability": "view",
      "type": "function",
      "constant": true
    },
    {
      "inputs": [
        {
          "internalType": "address",
          "name": "",
          "type": "address"
        }
      ],
      "name": "contributors",
      "outputs": [
        {
          "internalType": "uint256",
          "name": "",
          "type": "uint256"
        }
      ],
      "stateMutability": "view",
      "type": "function",
      "constant": true
    },
    {
      "inputs": [],
      "name": "deadline",
      "outputs": [
        {
          "internalType": "uint256",
          "name": "",
          "type": "uint256"
        }
      ],
      "stateMutability": "view",
      "type": "function",
      "constant": true
    },
    {
      "inputs": [],
      "name": "manager",
      "outputs": [
        {
          "internalType": "address",
          "name": "",
          "type": "address"
        }
      ],
      "stateMutability": "view",
      "type": "function",
      "constant": true
    },
    {
      "inputs": [],
      "name": "minimumContribution",
      "outputs": [
        {
          "internalType": "uint256",
          "name": "",
          "type": "uint256"
        }
      ],
      "stateMutability": "view",
      "type": "function",
      "constant": true
    },
    {
      "inputs": [],
      "name": "noOfContributors",
      "outputs": [
        {
          "internalType": "uint256",
          "name": "",
          "type": "uint256"
        }
      ],
      "stateMutability": "view",
      "type": "function",
      "constant": true
    },
    {
      "inputs": [],
      "name": "numRequests",
      "outputs": [
        {
          "internalType": "uint256",
          "name": "",
          "type": "uint256"
        }
      ],
      "stateMutability": "view",
      "type": "function",
      "constant": true
    },
    {
      "inputs": [],
      "name": "raisedAmount",
      "outputs": [
        {
          "internalType": "uint256",
          "name": "",
          "type": "uint256"
        }
      ],
      "stateMutability": "view",
      "type": "function",
      "constant": true
    },
    {
      "inputs": [
        {
          "internalType": "uint256",
          "name": "",
          "type": "uint256"
        }
      ],
      "name": "requests",
      "outputs": [
        {
          "internalType": "uint256",
          "name": "requestno",
          "type": "uint256"
        },
        {
          "internalType": "string",
          "name": "description",
          "type": "string"
        },
        {
          "internalType": "address payable",
          "name": "reciepent",
          "type": "address"
        },
        {
          "internalType": "uint256",
          "name": "value",
          "type": "uint256"
        },
        {
          "internalType": "bool",
          "name": "completed",
          "type": "bool"
        },
        {
          "internalType": "uint256",
          "name": "noOfVoters",
          "type": "uint256"
        }
      ],
      "stateMutability": "view",
      "type": "function",
      "constant": true
    },
    {
      "inputs": [],
      "name": "target",
      "outputs": [
        {
          "internalType": "uint256",
          "name": "",
          "type": "uint256"
        }
      ],
      "stateMutability": "view",
      "type": "function",
      "constant": true
    },
    {
      "inputs": [],
      "name": "fundContract",
      "outputs": [],
      "stateMutability": "payable",
      "type": "function",
      "payable": true
    },
    {
      "inputs": [],
      "name": "getContractAddress",
      "outputs": [
        {
          "internalType": "address",
          "name": "",
          "type": "address"
        }
      ],
      "stateMutability": "nonpayable",
      "type": "function"
    },
    {
      "inputs": [],
      "name": "getTarget",
      "outputs": [
        {
          "internalType": "uint256",
          "name": "",
          "type": "uint256"
        }
      ],
      "stateMutability": "view",
      "type": "function",
      "constant": true
    },
    {
      "inputs": [],
      "name": "getContractBalance",
      "outputs": [
        {
          "internalType": "uint256",
          "name": "",
          "type": "uint256"
        }
      ],
      "stateMutability": "view",
      "type": "function",
      "constant": true
    },
    {
      "inputs": [
        {
          "internalType": "uint256",
          "name": "tar",
          "type": "uint256"
        },
        {
          "internalType": "uint256",
          "name": "dline",
          "type": "uint256"
        }
      ],
      "name": "setEth",
      "outputs": [],
      "stateMutability": "nonpayable",
      "type": "function"
    },
    {
      "inputs": [
        {
          "internalType": "string",
          "name": "_description",
          "type": "string"
        },
        {
          "internalType": "address payable",
          "name": "_reciepent",
          "type": "address"
        },
        {
          "internalType": "uint256",
          "name": "_value",
          "type": "uint256"
        }
      ],
      "name": "createRequests",
      "outputs": [],
      "stateMutability": "nonpayable",
      "type": "function"
    },
    {
      "inputs": [
        {
          "internalType": "uint256",
          "name": "_requestNo",
          "type": "uint256"
        }
      ],
      "name": "voteRequest",
      "outputs": [],
      "stateMutability": "nonpayable",
      "type": "function"
    },
    {
      "inputs": [
        {
          "internalType": "uint256",
          "name": "_requestNo",
          "type": "uint256"
        }
      ],
      "name": "makePayment",
      "outputs": [],
      "stateMutability": "payable",
      "type": "function",
      "payable": true
    }
  ],
  "bytecode": "0x60806040526000600755600060095534801561001a57600080fd5b5033600160006101000a81548173ffffffffffffffffffffffffffffffffffffffff021916908373ffffffffffffffffffffffffffffffffffffffff1602179055506111988061006b6000396000f3fe6080604052600436106101135760003560e01c80635114cb52116100a0578063b69ef8a811610064578063b69ef8a8146105a6578063bd097e21146105d1578063c59ee1dc146105db578063d4b8399214610606578063f00e6a2a1461063157610113565b80635114cb52146104085780636f9fb98a1461043657806381d12c5814610461578063937e09b1146105505780639fb42b1f1461057b57610113565b80633eb7647b116100e75780633eb7647b1461022e578063481c6a75146103205780634c62d88c146103615780634cb6f4a5146103a25780634e260f6f146103dd57610113565b8062fdbba7146101185780631f6d49421461015d57806329dcb0cf146101c257806332a2c5d0146101ed575b600080fd5b34801561012457600080fd5b5061015b6004803603604081101561013b57600080fd5b81019080803590602001909291908035906020019092919050505061065c565b005b34801561016957600080fd5b506101ac6004803603602081101561018057600080fd5b81019080803573ffffffffffffffffffffffffffffffffffffffff1690602001909291905050506106b9565b6040518082815260200191505060405180910390f35b3480156101ce57600080fd5b506101d76106d1565b6040518082815260200191505060405180910390f35b3480156101f957600080fd5b506102026106d7565b604051808273ffffffffffffffffffffffffffffffffffffffff16815260200191505060405180910390f35b34801561023a57600080fd5b5061031e6004803603606081101561025157600080fd5b810190808035906020019064010000000081111561026e57600080fd5b82018360208201111561028057600080fd5b803590602001918460018302840111640100000000831117156102a257600080fd5b91908080601f016020809104026020016040519081016040528093929190818152602001838380828437600081840152601f19601f820116905080830192505050505050509192919290803573ffffffffffffffffffffffffffffffffffffffff16906020019092919080359060200190929190505050610742565b005b34801561032c57600080fd5b506103356109ae565b604051808273ffffffffffffffffffffffffffffffffffffffff16815260200191505060405180910390f35b34801561036d57600080fd5b506103766109d4565b604051808273ffffffffffffffffffffffffffffffffffffffff16815260200191505060405180910390f35b3480156103ae57600080fd5b506103db600480360360208110156103c557600080fd5b81019080803590602001909291905050506109fa565b005b3480156103e957600080fd5b506103f2610bff565b6040518082815260200191505060405180910390f35b6104346004803603602081101561041e57600080fd5b8101908080359060200190929190505050610c05565b005b34801561044257600080fd5b5061044b610f09565b6040518082815260200191505060405180910390f35b34801561046d57600080fd5b5061049a6004803603602081101561048457600080fd5b8101908080359060200190929190505050610f11565b60405180878152602001806020018673ffffffffffffffffffffffffffffffffffffffff1681526020018581526020018415158152602001838152602001828103825287818151815260200191508051906020019080838360005b838110156105105780820151818401526020810190506104f5565b50505050905090810190601f16801561053d5780820380516001836020036101000a031916815260200191505b5097505050505050505060405180910390f35b34801561055c57600080fd5b50610565611012565b6040518082815260200191505060405180910390f35b34801561058757600080fd5b50610590611018565b6040518082815260200191505060405180910390f35b3480156105b257600080fd5b506105bb61101e565b6040518082815260200191505060405180910390f35b6105d9611024565b005b3480156105e757600080fd5b506105f061108b565b6040518082815260200191505060405180910390f35b34801561061257600080fd5b5061061b611091565b6040518082815260200191505060405180910390f35b34801561063d57600080fd5b50610646611097565b6040518082815260200191505060405180910390f35b81600581905550804201600481905550606460038190555033600160006101000a81548173ffffffffffffffffffffffffffffffffffffffff021916908373ffffffffffffffffffffffffffffffffffffffff1602179055505050565b60006020528060005260406000206000915090505481565b60045481565b600030600260006101000a81548173ffffffffffffffffffffffffffffffffffffffff021916908373ffffffffffffffffffffffffffffffffffffffff160217905550600260009054906101000a900473ffffffffffffffffffffffffffffffffffffffff16905090565b600160009054906101000a900473ffffffffffffffffffffffffffffffffffffffff1673ffffffffffffffffffffffffffffffffffffffff163373ffffffffffffffffffffffffffffffffffffffff16146107e8576040517f08c379a000000000000000000000000000000000000000000000000000000000815260040180806020018281038252602481526020018061113f6024913960400191505060405180910390fd5b6000600a60006009548152602001908152602001600020905060096000815480929190600101919050558160000181905550838160010190805190602001906108329291906110a1565b50828160020160006101000a81548173ffffffffffffffffffffffffffffffffffffffff021916908373ffffffffffffffffffffffffffffffffffffffff16021790555081816003018190555060008160040160006101000a81548160ff0219169083151502179055506000816005018190555080600301548160020160009054906101000a900473ffffffffffffffffffffffffffffffffffffffff1673ffffffffffffffffffffffffffffffffffffffff168260010160405180828054600181600116156101000203166002900480156109455780601f10610923576101008083540402835291820191610945565b820191906000526020600020905b815481529060010190602001808311610931575b505091505060405180910390207fbfb7043dc5ed784f38138a390811f93f2c403a8ee1be1460a06436ba611c96f18460040160009054906101000a900460ff1685600501546040518083151581526020018281526020019250505060405180910390a450505050565b600160009054906101000a900473ffffffffffffffffffffffffffffffffffffffff1681565b600260009054906101000a900473ffffffffffffffffffffffffffffffffffffffff1681565b60008060003373ffffffffffffffffffffffffffffffffffffffff1673ffffffffffffffffffffffffffffffffffffffff1681526020019081526020016000205411610aae576040517f08c379a00000000000000000000000000000000000000000000000000000000081526004018080602001828103825260198152602001807f596f75206d757374206265206120434f6e7472696275746f720000000000000081525060200191505060405180910390fd5b6000600a60008381526020019081526020016000209050600015158160060160003373ffffffffffffffffffffffffffffffffffffffff1673ffffffffffffffffffffffffffffffffffffffff16815260200190815260200160002060009054906101000a900460ff16151514610b8d576040517f08c379a00000000000000000000000000000000000000000000000000000000081526004018080602001828103825260168152602001807f596f75206861766520616c726561647920766f7465640000000000000000000081525060200191505060405180910390fd5b60018160060160003373ffffffffffffffffffffffffffffffffffffffff1673ffffffffffffffffffffffffffffffffffffffff16815260200190815260200160002060006101000a81548160ff02191690831515021790555080600501600081548092919060010191905055505050565b60075481565b600160009054906101000a900473ffffffffffffffffffffffffffffffffffffffff1673ffffffffffffffffffffffffffffffffffffffff163373ffffffffffffffffffffffffffffffffffffffff1614610cab576040517f08c379a000000000000000000000000000000000000000000000000000000000815260040180806020018281038252602481526020018061113f6024913960400191505060405180910390fd5b6005546006541015610cbc57600080fd5b6000600a60008381526020019081526020016000209050600015158160040160009054906101000a900460ff16151514610d5e576040517f08c379a000000000000000000000000000000000000000000000000000000000815260040180806020018281038252601e8152602001807f546865207265717565737420686173206265656e20636f6d706c65746564000081525060200191505060405180910390fd5b600260075481610d6a57fe5b04816005015411610de3576040517f08c379a00000000000000000000000000000000000000000000000000000000081526004018080602001828103825260198152602001807f4d616a6f7269747920646f6573206e6f7420737570706f72740000000000000081525060200191505060405180910390fd5b60065481600301541115610e5f576040517f08c379a000000000000000000000000000000000000000000000000000000000815260040180806020018281038252601d8152602001807f496e73756666696369656e7420436f6e74726163742042616c616e636500000081525060200191505060405180910390fd5b806003015460066000828254039250508190555060008160020160009054906101000a900473ffffffffffffffffffffffffffffffffffffffff1690508073ffffffffffffffffffffffffffffffffffffffff166108fc83600301549081150290604051600060405180830381858888f19350505050158015610ee6573d6000803e3d6000fd5b5060018260040160006101000a81548160ff021916908315150217905550505050565b600047905090565b600a602052806000526040600020600091509050806000015490806001018054600181600116156101000203166002900480601f016020809104026020016040519081016040528092919081815260200182805460018160011615610100020316600290048015610fc35780601f10610f9857610100808354040283529160200191610fc3565b820191906000526020600020905b815481529060010190602001808311610fa657829003601f168201915b5050505050908060020160009054906101000a900473ffffffffffffffffffffffffffffffffffffffff16908060030154908060040160009054906101000a900460ff16908060050154905086565b60035481565b60095481565b60085481565b60646000803373ffffffffffffffffffffffffffffffffffffffff1673ffffffffffffffffffffffffffffffffffffffff16815260200190815260200160002081905550346006600082825401925050819055506001600760008282540192505081905550565b60065481565b60055481565b6000600554905090565b828054600181600116156101000203166002900490600052602060002090601f016020900481019282601f106110e257805160ff1916838001178555611110565b82800160010185558215611110579182015b8281111561110f5782518255916020019190600101906110f4565b5b50905061111d9190611121565b5090565b5b8082111561113a576000816000905550600101611122565b509056fe4f6e6c79206d616e616765722063616e2063616c6c20746869732066756e6374696f6e2ea2646970667358221220c7457ab5884018fc881234d9c3e2bc897bb273c1eb2d7e19bcb308d164db150d64736f6c634300060c0033",
  "immutableReferences": {},
  "source": "// SPDX-License-Identifier: MIT\r\npragma solidity >=0.6.0;\r\n\r\ncontract CrowdFunding {\r\n\r\n    function fundContract() public payable \r\n    {\r\n        contributors[msg.sender] = 100;\r\n        raisedAmount += msg.value;\r\n        noOfContributors += 1;\r\n    }\r\n\r\n    mapping(address=>uint) public contributors;\r\n    address public manager;\r\n    address public contract1;\r\n    uint public minimumContribution;\r\n    uint public deadline;\r\n    uint public target;\r\n    uint public raisedAmount;\r\n    uint public noOfContributors =0;\r\n    uint public balance;\r\n    uint public numRequests = 0;\r\n\r\n    struct Request {\r\n        uint requestno;\r\n        string description;\r\n        address payable reciepent;\r\n        uint value;\r\n        bool completed;\r\n        uint noOfVoters;\r\n        mapping(address=>bool) voters;\r\n    }\r\n    mapping(uint=> Request) public requests;\r\n\r\n    constructor() public {\r\n        manager = msg.sender;\r\n    }\r\n\r\n    function getContractAddress() public returns(address) {\r\n        contract1 = address(this);\r\n        return contract1;\r\n    }\r\n\r\n    function getTarget() public view returns(uint) {\r\n        return target;\r\n    }\r\n\r\n    function getContractBalance() public view returns(uint) {\r\n        return address(this).balance;\r\n    }\r\n\r\n    modifier OnlyManager() {\r\n        require(msg.sender==manager, \"Only manager can call this function.\");\r\n        _;\r\n    }\r\n\r\n    function setEth(uint tar, uint dline) public \r\n    {\r\n        target = tar;   //whatever amount of target the manager has to get\r\n        deadline = block.timestamp + dline;  // global variable to get current block timestamp - Unit=(seconds).\r\n        minimumContribution = 100 wei;\r\n        manager= msg.sender;\r\n    }\r\n\r\n     event Transfer (\r\n        address indexed _from,\r\n        address indexed _to,\r\n        uint value\r\n    );\r\n    event RequestsWrite (\r\n        string indexed description,\r\n        address indexed reciepent,\r\n        uint indexed value,\r\n        bool completed,\r\n        uint noOfVoters\r\n    );\r\n    mapping(address=>bool) voters;\r\n\r\n    function createRequests(string memory _description, address payable _reciepent, uint _value) public OnlyManager {\r\n        Request storage newRequest = requests[numRequests];\r\n        newRequest.requestno = numRequests++;\r\n        newRequest.description = _description;\r\n        newRequest.reciepent = _reciepent;\r\n        newRequest.value = _value;\r\n        newRequest.completed = false;\r\n        newRequest.noOfVoters = 0;\r\n        emit RequestsWrite(newRequest.description, newRequest.reciepent, newRequest.value, newRequest.completed, newRequest.noOfVoters);\r\n    }\r\n\r\n    function voteRequest(uint _requestNo) public {\r\n        require(contributors[msg.sender]>0, \"You must be a COntributor\");\r\n        Request storage thisRequest = requests[_requestNo];\r\n        require(thisRequest.voters[msg.sender] ==false, \"You have already voted\");\r\n        thisRequest.voters[msg.sender] =true;\r\n        thisRequest.noOfVoters++;\r\n    }\r\n\r\n    function makePayment(uint _requestNo) public payable OnlyManager {\r\n        require(raisedAmount>=target);\r\n        Request storage thisRequest= requests[_requestNo];\r\n        require(thisRequest.completed == false, \"The request has been completed\");\r\n        require(thisRequest.noOfVoters > noOfContributors/2, \"Majority does not support\");\r\n        require(thisRequest.value <= raisedAmount, \"Insufficient Contract Balance\");\r\n        //emit Transfer(manager, thisRequest.reciepent, thisRequest.value);\r\n        raisedAmount -= thisRequest.value;\r\n        address payable reciepent = payable(thisRequest.reciepent);\r\n        reciepent.transfer(thisRequest.value);\r\n        thisRequest.completed = true;\r\n    }\r\n\r\n}",
  "sourcePath": "C:\\Users\\siddh\\final crowdfunding\\myapp\\src\\contracts\\CrowdFunding.sol",
  "compiler": {
    "name": "solc",
    "version": "0.6.12+commit.27d51765.Emscripten.clang"
  },
  "schemaVersion": "3.4.10",
  "updatedAt": "2023-03-10T15:06:42.540Z",
  "networkType": "ethereum",
  "devdoc": {
    "kind": "dev",
    "methods": {},
    "version": 1
  },
  "userdoc": {
    "kind": "user",
    "methods": {},
    "version": 1
  }
}